:1000000012C02CC02BC02AC029C028C0F2C126C0F3
:1000100025C024C023C022C021C020C01FC01EC0D4
:100020001DC01CC01BC011241FBECFE5D4E0DEBF25
:10003000CDBF10E0A0E6B0E0E6EDF4E002C0059030
:100040000D92AC3FB107D9F721E0ACEFB0E001C0B1
:100050001D92A030B207E1F743D13BC2D1CF81B3AB
:10006000877881BBC09AC29882E08A95F1F700C078
:10007000979A92E09A95F1F700C080B3869586959D
:1000800086958295807F92E09A95F1F700C09798C7
:1000900095E09A95F1F70000979A92E09A95F1F71A
:1000A00000C090B392E09A95F1F700C0979895E060
:1000B0009A95F1F700008823DCF2C09881B3886735
:1000C00081BB0895282F22952F708F70611102C077
:1000D000C29801C0C29A92E09A95F1F700C0979A2F
:1000E00092B3220F220F220F9778922B92BB95E0AA
:1000F0009A95F1F70000979895E09A95F1F700002E
:10010000979A92B3880F880F880F9778892B82BBB4
:1001100085E08A95F1F70000979895E09A95F1F7B8
:1001200000009DDF08950F931F93CF93DF938C0101
:10013000FC0180818823E9F0853291F4E801219661
:10014000F80181818053883018F461E0BBDF0BC077
:1001500061E085E2B7DF61E0F8018181B3DF03C0D0
:1001600061E0B0DFE8018E010F5F1F4F89818111CF
:10017000E3CFDF91CF911F910F910895EF92FF92FE
:100180000F931F93CF93DF9300D000D01F92CDB772
:10019000DEB77B01FE01319625E0DF011D922A9535
:1001A000E9F7009751F035962AE030E0B9016AD1BD
:1001B0008293862F972F0097C9F7BFEFEB16FB06A8
:1001C00069F4898181111DC0FE01329600E010E0C2
:1001D0000F5F1F4F81918823D9F30FC005E010E016
:1001E0000E191F090AC0F80181918F0161E0805D3D
:1001F00069DF0E151F05B9F711C0053011051CF098
:100200000DC000E010E081E090E08C0F9D1F080F12
:10021000191F7E0196E0E90EF11CE5CF0F900F90BB
:100220000F900F900F90DF91CF911F910F91FF9042
:10023000EF900895843170F4623031F0633031F022
:10024000613029F4806403C08C5E01C08C5A60E088
:10025000806838DF08950F931F93CF93DF93C82FE3
:100260002FEF86E791E0215080409040E1F700C0F9
:10027000000091B3986791BB8F9ABA9AB89A92B3DB
:10028000977892BB9798C098C29800C000C00000B1
:10029000979A949A25E02A95F1F70000979885E0BF
:1002A0008A95F1F70000DBDE60E08C2F8C600ADFBE
:1002B00060E088E207DF60E080E404DFC2E6D0E0CF
:1002C00002EA10E061E08991FDDEC017D107D1F7A5
:1002D00060E080E0AFDFDF91CF911F910F91089533
:1002E000B99AA39AC198AB9883E0B5DF60E081E04A
:1002F000E9DE8EB588608EBD8EB583608EBD8AEFD7
:1003000090E09BBD8ABD789489B7806189BF60E029
:1003100082E090DF82EA90E006DF61E082E08ADF3F
:100320008EEA90E000DF2FEF87E893E121508040D4
:100330009040E1F700C0000060E081E0C3DE60E0D3
:1003400080E078DF89EB90E0EEDE61E080E072DF54
:100350008AEC90E0E8DEC19AAB9A2FEF87E893E150
:10036000215080409040E1F700C0000060E081E053
:10037000A9DE60E080E05EDF8AED90E0D4DE61E03F
:1003800088E058DF8CEA90E0CEDE61E086E052DF64
:10039000809160009091610062E070E0EFDE61E0CA
:1003A00088E048DF8CEA90E0BEDE61E089E042DF71
:1003B0008091FC009091FD0062E070E0DFDE8091B2
:1003C000600090916100892B01F78091FC00909171
:1003D000FD00892BD1F660E081E074DE60E080E012
:1003E00029DF8AEE90E09FDEC198AB9880E090E034
:1003F00008951F920F920FB60F9211242F938F938F
:100400009F938091FE009091FF0001969093FF00D2
:100410008093FE008091FE009091FF00883E934003
:1004200049F58091FC009091FD00892BB1F48BE39C
:1004300090E09093FD008093FC008091600090918B
:100440006100892B99F08091600090916100019783
:10045000909361008093600009C08091FC009091AE
:10046000FD0001979093FD008093FC001092FF0027
:100470001092FE009F918F912F910F900FBE0F90C1
:100480001F90189597FB072E16F4009406D077FD61
:1004900008D00BD007FC05D03EF4909581959F4F76
:1004A0000895709561957F4F0895AA1BBB1B51E17C
:1004B00007C0AA1FBB1FA617B70710F0A61BB70BD4
:1004C000881F991F5A95A9F780959095BC01CD0179
:0604D0000895F894FFCF2F
:1004D6000A000C12120C000000000C1204081E0088
:1004E60000000A15110A040000000305090B0B1889
:1004F60018001F0E0E040404040401010505151559
:1005060015000E11111F1F1F1F0000000000000024
:10051600000054696D657220736574203A003130AD
:10052600204D696E75746573002A2A2A2A2A2A2A9A
:100536002A2A2A2A2A2A2A2A2A00537461727469C4
:100546006E672054696D65723A0054696D65207254
:10055600656D61696E696E673A002A2A2A2A5469AE
:0C0566006D65206F7665722A2A2A00005D
:00000001FF
